{
  "_format": "hh-sol-artifact-1",
  "contractName": "Staking",
  "sourceName": "contracts/Staking.sol",
  "abi": [
    {
      "inputs": [
        {
          "internalType": "address",
          "name": "_stakingToken",
          "type": "address"
        }
      ],
      "stateMutability": "nonpayable",
      "type": "constructor"
    },
    {
      "anonymous": false,
      "inputs": [
        {
          "indexed": true,
          "internalType": "address",
          "name": "_from",
          "type": "address"
        },
        {
          "indexed": true,
          "internalType": "address",
          "name": "_to",
          "type": "address"
        },
        {
          "indexed": false,
          "internalType": "uint256",
          "name": "_amount",
          "type": "uint256"
        }
      ],
      "name": "Stake",
      "type": "event"
    },
    {
      "anonymous": false,
      "inputs": [
        {
          "indexed": true,
          "internalType": "address",
          "name": "_from",
          "type": "address"
        },
        {
          "indexed": true,
          "internalType": "address",
          "name": "_to",
          "type": "address"
        },
        {
          "indexed": false,
          "internalType": "uint256",
          "name": "_amount",
          "type": "uint256"
        }
      ],
      "name": "UnStake",
      "type": "event"
    },
    {
      "inputs": [],
      "name": "STAKING_TOKEN",
      "outputs": [
        {
          "internalType": "contract IERC20",
          "name": "",
          "type": "address"
        }
      ],
      "stateMutability": "view",
      "type": "function"
    },
    {
      "inputs": [
        {
          "internalType": "uint256",
          "name": "_amount",
          "type": "uint256"
        }
      ],
      "name": "stake",
      "outputs": [],
      "stateMutability": "nonpayable",
      "type": "function"
    },
    {
      "inputs": [
        {
          "internalType": "address",
          "name": "",
          "type": "address"
        }
      ],
      "name": "stakedBalanceOf",
      "outputs": [
        {
          "internalType": "uint256",
          "name": "",
          "type": "uint256"
        }
      ],
      "stateMutability": "view",
      "type": "function"
    },
    {
      "inputs": [],
      "name": "stakedTotal",
      "outputs": [
        {
          "internalType": "uint256",
          "name": "",
          "type": "uint256"
        }
      ],
      "stateMutability": "view",
      "type": "function"
    },
    {
      "inputs": [
        {
          "internalType": "uint256",
          "name": "_amount",
          "type": "uint256"
        }
      ],
      "name": "unStake",
      "outputs": [],
      "stateMutability": "nonpayable",
      "type": "function"
    }
  ],
  "bytecode": "0x60a060405234801561001057600080fd5b50604051610b0b380380610b0b833981810160405281019061003291906100cf565b8073ffffffffffffffffffffffffffffffffffffffff1660808173ffffffffffffffffffffffffffffffffffffffff1681525050506100fc565b600080fd5b600073ffffffffffffffffffffffffffffffffffffffff82169050919050565b600061009c82610071565b9050919050565b6100ac81610091565b81146100b757600080fd5b50565b6000815190506100c9816100a3565b92915050565b6000602082840312156100e5576100e461006c565b5b60006100f3848285016100ba565b91505092915050565b6080516109e6610125600039600081816101020152818161022f01526103e801526109e66000f3fe608060405234801561001057600080fd5b50600436106100575760003560e01c80630479d6441461005c578063167653911461007a5780635d3eea91146100aa578063a694fc3a146100c6578063d66692a7146100e2575b600080fd5b610064610100565b60405161007191906105b6565b60405180910390f35b610094600480360381019061008f9190610614565b610124565b6040516100a1919061065a565b60405180910390f35b6100c460048036038101906100bf91906106a1565b61013c565b005b6100e060048036038101906100db91906106a1565b610376565b005b6100ea610531565b6040516100f7919061065a565b60405180910390f35b7f000000000000000000000000000000000000000000000000000000000000000081565b60006020528060005260406000206000915090505481565b806000803373ffffffffffffffffffffffffffffffffffffffff1673ffffffffffffffffffffffffffffffffffffffff1681526020019081526020016000205410156101bd576040517f08c379a00000000000000000000000000000000000000000000000000000000081526004016101b49061072b565b60405180910390fd5b806000803373ffffffffffffffffffffffffffffffffffffffff1673ffffffffffffffffffffffffffffffffffffffff168152602001908152602001600020600082825461020b919061077a565b925050819055508060016000828254610224919061077a565b9250508190555060007f000000000000000000000000000000000000000000000000000000000000000073ffffffffffffffffffffffffffffffffffffffff1663a9059cbb33846040518363ffffffff1660e01b81526004016102889291906107bd565b6020604051808303816000875af11580156102a7573d6000803e3d6000fd5b505050506040513d601f19601f820116820180604052508101906102cb919061081e565b90508061030d576040517f08c379a000000000000000000000000000000000000000000000000000000000815260040161030490610897565b60405180910390fd5b3373ffffffffffffffffffffffffffffffffffffffff163073ffffffffffffffffffffffffffffffffffffffff167fcf268deaafc5a69317ec5abde2ac50c6e40212c584c1857c9868834999da957e8460405161036a919061065a565b60405180910390a35050565b806000803373ffffffffffffffffffffffffffffffffffffffff1673ffffffffffffffffffffffffffffffffffffffff16815260200190815260200160002060008282546103c491906108b7565b9250508190555080600160008282546103dd91906108b7565b9250508190555060007f000000000000000000000000000000000000000000000000000000000000000073ffffffffffffffffffffffffffffffffffffffff166323b872dd3330856040518463ffffffff1660e01b81526004016104439392919061090d565b6020604051808303816000875af1158015610462573d6000803e3d6000fd5b505050506040513d601f19601f82011682018060405250810190610486919061081e565b9050806104c8576040517f08c379a00000000000000000000000000000000000000000000000000000000081526004016104bf90610990565b60405180910390fd5b3073ffffffffffffffffffffffffffffffffffffffff163373ffffffffffffffffffffffffffffffffffffffff167f99039fcf0a98f484616c5196ee8b2ecfa971babf0b519848289ea4db381f85f784604051610525919061065a565b60405180910390a35050565b60015481565b600073ffffffffffffffffffffffffffffffffffffffff82169050919050565b6000819050919050565b600061057c61057761057284610537565b610557565b610537565b9050919050565b600061058e82610561565b9050919050565b60006105a082610583565b9050919050565b6105b081610595565b82525050565b60006020820190506105cb60008301846105a7565b92915050565b600080fd5b60006105e182610537565b9050919050565b6105f1816105d6565b81146105fc57600080fd5b50565b60008135905061060e816105e8565b92915050565b60006020828403121561062a576106296105d1565b5b6000610638848285016105ff565b91505092915050565b6000819050919050565b61065481610641565b82525050565b600060208201905061066f600083018461064b565b92915050565b61067e81610641565b811461068957600080fd5b50565b60008135905061069b81610675565b92915050565b6000602082840312156106b7576106b66105d1565b5b60006106c58482850161068c565b91505092915050565b600082825260208201905092915050565b7f496e73756666696369656e74205374616b65642042616c616e63650000000000600082015250565b6000610715601b836106ce565b9150610720826106df565b602082019050919050565b6000602082019050818103600083015261074481610708565b9050919050565b7f4e487b7100000000000000000000000000000000000000000000000000000000600052601160045260246000fd5b600061078582610641565b915061079083610641565b9250828210156107a3576107a261074b565b5b828203905092915050565b6107b7816105d6565b82525050565b60006040820190506107d260008301856107ae565b6107df602083018461064b565b9392505050565b60008115159050919050565b6107fb816107e6565b811461080657600080fd5b50565b600081519050610818816107f2565b92915050565b600060208284031215610834576108336105d1565b5b600061084284828501610809565b91505092915050565b7f556e5374616b65204661696c6564000000000000000000000000000000000000600082015250565b6000610881600e836106ce565b915061088c8261084b565b602082019050919050565b600060208201905081810360008301526108b081610874565b9050919050565b60006108c282610641565b91506108cd83610641565b9250827fffffffffffffffffffffffffffffffffffffffffffffffffffffffffffffffff038211156109025761090161074b565b5b828201905092915050565b600060608201905061092260008301866107ae565b61092f60208301856107ae565b61093c604083018461064b565b949350505050565b7f5374616b696e67204661696c6564000000000000000000000000000000000000600082015250565b600061097a600e836106ce565b915061098582610944565b602082019050919050565b600060208201905081810360008301526109a98161096d565b905091905056fea264697066735822122052ac8d9fff62b4ac0b1b8f77232d3da54e292a1428752d612c7869b41dd41fa764736f6c634300080c0033",
  "linkReferences": {},
  "deployedLinkReferences": {}
}